:020000040800F2
:10000000002800204502000895020008950200081B
:100010009502000895020008950200080000000003
:100020000000000000000000000000009502000831
:1000300095020008000000009502000895020008E3
:100040009502000895020008950200089502000834
:100050009502000895020008950200089502000824
:100060009502000895020008950200089502000814
:100070009502000895020008950200089502000804
:1000800095020008950200089502000895020008F4
:1000900095020008950200089502000895020008E4
:1000A00095020008950200089502000895020008D4
:1000B00095020008950200089502000895020008C4
:1000C00095020008950200089502000895020008B4
:1000D00095020008950200089502000895020008A4
:1000E0009502000895020008000000009502000833
:1000F0009502000895020008950200089502000884
:100100009502000895020008950200089502000873
:100110009502000895020008950200089502000863
:100120009502000895020008950200089502000853
:1001300010B5054C237833B9044B13B10448AFF321
:1001400000800123237010BD00000020000000008B
:10015000E002000808B5034B1BB103490348AFF3A5
:10016000008008BD0000000004000020E00200083C
:1001700080B582B000AF00237B6000F025F8114B02
:100180001B68104A43F40053136000237B6002E0B5
:100190007B6801337B607B6841F287329342F7D9F9
:1001A000084B1B68074A23F40053136000237B604D
:1001B00002E07B6801337B607B6841F287329342C7
:1001C000F7D9DCE70C08014080B400AF194B1B687D
:1001D000184A43F4C0131360164B1B68154A43F0CA
:1001E00002031360134B1B68124A43F480631360CD
:1001F000104B1B680F4A43F4205313600E4B1B68CF
:100200000D4A43F0807313600C4B1B680B4A43F09C
:10021000040313600A4B1B68094A23F4700313603C
:10022000074B1B68064A43F40013136000BFBD462A
:1002300080BC7047041002400010024018100240B9
:10024000040801400D488546AFF300800C480D4975
:100250000D4A002302E0D458C4500433C4188C4221
:10026000F9D30A4A0A4C002301E013600432A24287
:10027000FBD300F011F8FFF77BFFFEE7002800201A
:100280000000002000000020000300080000002003
:100290001C000020FEE7000070B500250C4E0D4C40
:1002A000A41BA410A54209D100F01AF800250A4E9B
:1002B0000A4CA41BA410A54205D170BD56F82530E8
:1002C00098470135EEE756F8253098470135F2E7B3
:1002D000F8020008F8020008F8020008FC02000812
:1002E000F8B500BFF8BC08BC9E467047F8B500BF23
:0802F000F8BC08BC9E467047F3
:0402F80055010008A4
:0402FC0031010008C4
:0400000508000245A8
:00000001FF
