:020000040800F2
:10000000002800201D0200086D0200086D02000893
:100010006D0200086D0200086D020008000000007B
:100020000000000000000000000000006D02000859
:100030006D020008000000006D0200086D0200085B
:100040006D0200086D0200086D0200086D020008D4
:100050006D0200086D0200086D0200086D020008C4
:100060006D0200086D0200086D0200086D020008B4
:100070006D0200086D0200086D0200086D020008A4
:100080006D0200086D0200086D0200086D02000894
:100090006D0200086D0200086D0200086D02000884
:1000A0006D0200086D0200086D0200086D02000874
:1000B0006D0200086D0200086D0200086D02000864
:1000C0006D0200086D0200086D0200086D02000854
:1000D0006D0200086D0200086D0200086D02000844
:1000E0006D0200086D020008000000006D020008AB
:1000F0006D0200086D0200086D0200086D02000824
:100100006D0200086D0200086D0200086D02000813
:100110006D0200086D0200086D0200086D02000803
:100120006D0200086D0200086D0200086D020008F3
:1001300010B5054C237833B9044B13B10448AFF321
:1001400000800123237010BD00000020000000008B
:10015000B802000808B5034B1BB103490348AFF3CD
:10016000008008BD0000000004000020B802000864
:1001700080B582B000AF00237B6000F025F8114B02
:100180001B68104A43F40053136000237B6002E0B5
:100190007B6801337B607B6841F287329342F7D9F9
:1001A000084B1B68074A23F40053136000237B604D
:1001B00002E07B6801337B607B6841F287329342C7
:1001C000F7D9DCE70C08014080B400AF104B1B6886
:1001D0000F4A43F4806313600D4B1B680C4A43F4D1
:1001E000205313600B4B1B680A4A43F0040313604F
:1001F000094B1B68084A23F470031360064B1B6805
:10020000054A43F40013136000BFBD4680BC70472D
:100210000410024018100240040801400D488546B1
:10022000AFF300800C480D490D4A002302E0D4587A
:10023000C4500433C4188C42F9D30A4A0A4C002330
:1002400001E013600432A242FBD300F011F8FFF783
:100250008FFFFEE7002800200000002000000020A3
:10026000D8020008000000201C000020FEE700006B
:1002700070B500250C4E0D4CA41BA410A54209D14D
:1002800000F01AF800250A4E0A4CA41BA410A5423F
:1002900005D170BD56F8253098470135EEE756F880
:1002A000253098470135F2E7D0020008D002000857
:1002B000D0020008D4020008F8B500BFF8BC08BCA2
:1002C0009E467047F8B500BFF8BC08BC9E46704714
:0402D00055010008CC
:0402D40031010008EC
:040000050800021DD0
:00000001FF
